{
  "contractName": "Capsule",
  "abi": [
    {
      "constant": true,
      "inputs": [
        {
          "name": "",
          "type": "uint256"
        }
      ],
      "name": "predictions",
      "outputs": [
        {
          "name": "cid",
          "type": "string"
        },
        {
          "name": "name",
          "type": "string"
        },
        {
          "name": "date",
          "type": "string"
        }
      ],
      "payable": false,
      "stateMutability": "view",
      "type": "function"
    },
    {
      "inputs": [],
      "payable": false,
      "stateMutability": "nonpayable",
      "type": "constructor"
    },
    {
      "constant": true,
      "inputs": [],
      "name": "getPredictionsNumber",
      "outputs": [
        {
          "name": "",
          "type": "uint256"
        }
      ],
      "payable": false,
      "stateMutability": "view",
      "type": "function"
    }
  ],
  "bytecode": "0x608060405234801561001057600080fd5b50600060405180606001604052806040518060600160405280602e8152602001610a8c602e913981526020016040518060400160405280601781526020017fd090d0b7d0b0d18220d093d0b0d184d0b0d180d0bed0b200000000000000000081525081526020016040518060400160405280600a81526020017f32372e30362e32303139000000000000000000000000000000000000000000008152508152509080600181540180825580915050906001820390600052602060002090600302016000909192909190915060008201518160000190805190602001906100f79291906105ca565b5060208201518160010190805190602001906101149291906105ca565b5060408201518160020190805190602001906101319291906105ca565b50505050600060405180606001604052806040518060600160405280602e8152602001610aba602e913981526020016040518060400160405280601781526020017fd0aed180d0b8d0b920d091d0bed0bdd0b4d0b0d180d18c00000000000000000081525081526020016040518060400160405280600a81526020017f32372e30362e323031390000000000000000000000000000000000000000000081525081525090806001815401808255809150509060018203906000526020600020906003020160009091929091909150600082015181600001908051906020019061021b9291906105ca565b5060208201518160010190805190602001906102389291906105ca565b5060408201518160020190805190602001906102559291906105ca565b50505050600060405180606001604052806040518060600160405280602e8152602001610a8c602e913981526020016040518060400160405280601981526020017fd09dd0b0d182d0b0d0bbd18cd18f20d093d0b0d0bbd18fd0bd0000000000000081525081526020016040518060400160405280600a81526020017f32372e30362e323031390000000000000000000000000000000000000000000081525081525090806001815401808255809150509060018203906000526020600020906003020160009091929091909150600082015181600001908051906020019061033f9291906105ca565b50602082015181600101908051906020019061035c9291906105ca565b5060408201518160020190805190602001906103799291906105ca565b50505050600060405180606001604052806040518060600160405280602e8152602001610aba602e913981526020016040518060400160405280601981526020017fd0a1d0b2d0b5d182d0bbd0b0d0bdd0b020d091d0bed0b2d0b00000000000000081525081526020016040518060400160405280600a81526020017f32372e30362e32303139000000000000000000000000000000000000000000008152508152509080600181540180825580915050906001820390600052602060002090600302016000909192909190915060008201518160000190805190602001906104639291906105ca565b5060208201518160010190805190602001906104809291906105ca565b50604082015181600201908051906020019061049d9291906105ca565b50505050600060405180606001604052806040518060600160405280602e8152602001610a8c602e913981526020016040518060400160405280600f81526020017fd094d0b0d0b2d0b8d0b420d0afd0bd000000000000000000000000000000000081525081526020016040518060400160405280600a81526020017f32372e30362e32303139000000000000000000000000000000000000000000008152508152509080600181540180825580915050906001820390600052602060002090600302016000909192909190915060008201518160000190805190602001906105879291906105ca565b5060208201518160010190805190602001906105a49291906105ca565b5060408201518160020190805190602001906105c19291906105ca565b5050505061066f565b828054600181600116156101000203166002900490600052602060002090601f016020900481019282601f1061060b57805160ff1916838001178555610639565b82800160010185558215610639579182015b8281111561063857825182559160200191906001019061061d565b5b509050610646919061064a565b5090565b61066c91905b80821115610668576000816000905550600101610650565b5090565b90565b61040e8061067e6000396000f3fe608060405234801561001057600080fd5b50600436106100355760003560e01c80624fbbb01461003a57806320232736146101b9575b600080fd5b6100666004803603602081101561005057600080fd5b81019080803590602001909291905050506101d7565b60405180806020018060200180602001848103845287818151815260200191508051906020019080838360005b838110156100ae578082015181840152602081019050610093565b50505050905090810190601f1680156100db5780820380516001836020036101000a031916815260200191505b50848103835286818151815260200191508051906020019080838360005b838110156101145780820151818401526020810190506100f9565b50505050905090810190601f1680156101415780820380516001836020036101000a031916815260200191505b50848103825285818151815260200191508051906020019080838360005b8381101561017a57808201518184015260208101905061015f565b50505050905090810190601f1680156101a75780820380516001836020036101000a031916815260200191505b50965050505050505060405180910390f35b6101c16103d6565b6040518082815260200191505060405180910390f35b600081815481106101e457fe5b9060005260206000209060030201600091509050806000018054600181600116156101000203166002900480601f0160208091040260200160405190810160405280929190818152602001828054600181600116156101000203166002900480156102905780601f1061026557610100808354040283529160200191610290565b820191906000526020600020905b81548152906001019060200180831161027357829003601f168201915b505050505090806001018054600181600116156101000203166002900480601f01602080910402602001604051908101604052809291908181526020018280546001816001161561010002031660029004801561032e5780601f106103035761010080835404028352916020019161032e565b820191906000526020600020905b81548152906001019060200180831161031157829003601f168201915b505050505090806002018054600181600116156101000203166002900480601f0160208091040260200160405190810160405280929190818152602001828054600181600116156101000203166002900480156103cc5780601f106103a1576101008083540402835291602001916103cc565b820191906000526020600020905b8154815290600101906020018083116103af57829003601f168201915b5050505050905083565b6000808054905090509056fea165627a7a72305820cf14e3e35d529b93d76d936109c70d212b9db97b0cc20619faaead7949a919040029516d643238364b36706f685163544b59716e53315968577243695334677a37586933347364774d653955535a3775516d5259596463536d7a7a33385755716f75553375713357736f6e38593134557a637a6a436f4239716365516f59",
  "source": "pragma solidity ^0.5.0;\n\ncontract Capsule {\n    struct Prediction {\n        string cid;\n        string name;\n        string date;\n    }\n\n    Prediction[] public predictions;\n\n    constructor() public {\n        predictions.push(Prediction('Qmd286K6pohQcTKYqnS1YhWrCiS4gz7Xi34sdwMe9USZ7u', 'Азат Гафаров', '27.06.2019'));\n        predictions.push(Prediction('QmRYYdcSmzz38WUqouU3uq3Wson8Y14UzczjCoB9qceQoY', 'Юрий Бондарь', '27.06.2019'));\n        predictions.push(Prediction('Qmd286K6pohQcTKYqnS1YhWrCiS4gz7Xi34sdwMe9USZ7u', 'Наталья Галян', '27.06.2019'));\n        predictions.push(Prediction('QmRYYdcSmzz38WUqouU3uq3Wson8Y14UzczjCoB9qceQoY', 'Светлана Бова', '27.06.2019'));\n        predictions.push(Prediction('Qmd286K6pohQcTKYqnS1YhWrCiS4gz7Xi34sdwMe9USZ7u', 'Давид Ян', '27.06.2019'));\n    }\n\n    function getPredictionsNumber() public view returns(uint) {\n        return predictions.length;\n    }\n}\n",
  "sourcePath": "/Users/i070933/Github/time-capsule2/contracts/Capsule.sol",
  "compiler": {
    "name": "solc",
    "version": "0.5.8+commit.23d335f2.Emscripten.clang"
  },
  "schemaVersion": "3.0.12",
  "updatedAt": "2019-09-03T11:34:01.945Z",
  "devdoc": {
    "methods": {}
  },
  "userdoc": {
    "methods": {}
  }
}